:09005500C294C295C296C2972222
:09005E00D294C295D296C29722F9
:09006700C294D295C296D29722F0
:09007000C294D295D296C29722E7
:09007900D294C295C296D29722DE
:10000300758920758D02758B2A759850E4F587D212
:100013008ED2ACD2AF859908C298E50824CE60127F
:10002300146014146016146018240470E812006736
:1000330080E312005E80DE12007980D912007080A6
:06004300D412005580CF2D
:03000000020049B2
:0C004900787FE4F6D8FD75810802000302
:00000001FF
